{
  "_format": "hh-sol-artifact-1",
  "contractName": "ReactivePredictionMarket",
  "sourceName": "contracts/ReactiveMarket.sol",
  "abi": [
    {
      "inputs": [],
      "stateMutability": "nonpayable",
      "type": "constructor"
    },
    {
      "inputs": [
        {
          "internalType": "address",
          "name": "owner",
          "type": "address"
        }
      ],
      "name": "OwnableInvalidOwner",
      "type": "error"
    },
    {
      "inputs": [
        {
          "internalType": "address",
          "name": "account",
          "type": "address"
        }
      ],
      "name": "OwnableUnauthorizedAccount",
      "type": "error"
    },
    {
      "anonymous": false,
      "inputs": [
        {
          "indexed": false,
          "internalType": "uint256",
          "name": "eventId",
          "type": "uint256"
        },
        {
          "indexed": false,
          "internalType": "address",
          "name": "user",
          "type": "address"
        },
        {
          "indexed": false,
          "internalType": "uint256",
          "name": "amount",
          "type": "uint256"
        },
        {
          "indexed": false,
          "internalType": "bool",
          "name": "prediction",
          "type": "bool"
        }
      ],
      "name": "BetPlaced",
      "type": "event"
    },
    {
      "anonymous": false,
      "inputs": [
        {
          "indexed": false,
          "internalType": "uint256",
          "name": "eventId",
          "type": "uint256"
        },
        {
          "indexed": false,
          "internalType": "bool",
          "name": "outcome",
          "type": "bool"
        }
      ],
      "name": "EventResolved",
      "type": "event"
    },
    {
      "anonymous": false,
      "inputs": [
        {
          "indexed": true,
          "internalType": "address",
          "name": "previousOwner",
          "type": "address"
        },
        {
          "indexed": true,
          "internalType": "address",
          "name": "newOwner",
          "type": "address"
        }
      ],
      "name": "OwnershipTransferred",
      "type": "event"
    },
    {
      "inputs": [
        {
          "internalType": "uint256",
          "name": "",
          "type": "uint256"
        },
        {
          "internalType": "uint256",
          "name": "",
          "type": "uint256"
        }
      ],
      "name": "eventBets",
      "outputs": [
        {
          "internalType": "address",
          "name": "user",
          "type": "address"
        },
        {
          "internalType": "uint256",
          "name": "amount",
          "type": "uint256"
        },
        {
          "internalType": "bool",
          "name": "prediction",
          "type": "bool"
        }
      ],
      "stateMutability": "view",
      "type": "function"
    },
    {
      "inputs": [
        {
          "internalType": "uint256",
          "name": "",
          "type": "uint256"
        }
      ],
      "name": "eventOutcome",
      "outputs": [
        {
          "internalType": "bool",
          "name": "",
          "type": "bool"
        }
      ],
      "stateMutability": "view",
      "type": "function"
    },
    {
      "inputs": [
        {
          "internalType": "uint256",
          "name": "",
          "type": "uint256"
        }
      ],
      "name": "eventResolved",
      "outputs": [
        {
          "internalType": "bool",
          "name": "",
          "type": "bool"
        }
      ],
      "stateMutability": "view",
      "type": "function"
    },
    {
      "inputs": [],
      "name": "owner",
      "outputs": [
        {
          "internalType": "address",
          "name": "",
          "type": "address"
        }
      ],
      "stateMutability": "view",
      "type": "function"
    },
    {
      "inputs": [
        {
          "internalType": "uint256",
          "name": "eventId",
          "type": "uint256"
        },
        {
          "internalType": "bool",
          "name": "prediction",
          "type": "bool"
        }
      ],
      "name": "placeBet",
      "outputs": [],
      "stateMutability": "payable",
      "type": "function"
    },
    {
      "inputs": [],
      "name": "renounceOwnership",
      "outputs": [],
      "stateMutability": "nonpayable",
      "type": "function"
    },
    {
      "inputs": [
        {
          "internalType": "uint256",
          "name": "eventId",
          "type": "uint256"
        },
        {
          "internalType": "bool",
          "name": "outcome",
          "type": "bool"
        }
      ],
      "name": "resolveEvent",
      "outputs": [],
      "stateMutability": "nonpayable",
      "type": "function"
    },
    {
      "inputs": [
        {
          "internalType": "address",
          "name": "newOwner",
          "type": "address"
        }
      ],
      "name": "transferOwnership",
      "outputs": [],
      "stateMutability": "nonpayable",
      "type": "function"
    }
  ],
  "bytecode": "0x608060405234801561001057600080fd5b5033600073ffffffffffffffffffffffffffffffffffffffff168173ffffffffffffffffffffffffffffffffffffffff16036100845760006040517f1e4fbdf700000000000000000000000000000000000000000000000000000000815260040161007b919061019e565b60405180910390fd5b6100938161009960201b60201c565b506101b9565b60008060009054906101000a900473ffffffffffffffffffffffffffffffffffffffff169050816000806101000a81548173ffffffffffffffffffffffffffffffffffffffff021916908373ffffffffffffffffffffffffffffffffffffffff1602179055508173ffffffffffffffffffffffffffffffffffffffff168173ffffffffffffffffffffffffffffffffffffffff167f8be0079c531659141344cd1fd0a4f28419497f9722a3daafe3b4186f6b6457e060405160405180910390a35050565b600073ffffffffffffffffffffffffffffffffffffffff82169050919050565b60006101888261015d565b9050919050565b6101988161017d565b82525050565b60006020820190506101b3600083018461018f565b92915050565b610e7e806101c86000396000f3fe60806040526004361061007b5760003560e01c80638dcbbc6f1161004e5780638dcbbc6f1461013c578063915439fb1461017b5780639ed9c74d146101a4578063f2fde38b146101c05761007b565b8063016c804214610080578063715018a6146100bd578063885735a5146100d45780638da5cb5b14610111575b600080fd5b34801561008c57600080fd5b506100a760048036038101906100a2919061096b565b6101e9565b6040516100b491906109b3565b60405180910390f35b3480156100c957600080fd5b506100d2610209565b005b3480156100e057600080fd5b506100fb60048036038101906100f6919061096b565b61021d565b60405161010891906109b3565b60405180910390f35b34801561011d57600080fd5b5061012661023d565b6040516101339190610a0f565b60405180910390f35b34801561014857600080fd5b50610163600480360381019061015e9190610a2a565b610266565b60405161017293929190610a79565b60405180910390f35b34801561018757600080fd5b506101a2600480360381019061019d9190610adc565b6102da565b005b6101be60048036038101906101b99190610adc565b6103e1565b005b3480156101cc57600080fd5b506101e760048036038101906101e29190610b48565b610547565b005b60036020528060005260406000206000915054906101000a900460ff1681565b6102116105cd565b61021b6000610654565b565b60026020528060005260406000206000915054906101000a900460ff1681565b60008060009054906101000a900473ffffffffffffffffffffffffffffffffffffffff16905090565b6001602052816000526040600020818154811061028257600080fd5b9060005260206000209060030201600091509150508060000160009054906101000a900473ffffffffffffffffffffffffffffffffffffffff16908060010154908060020160009054906101000a900460ff16905083565b6102e26105cd565b6003600083815260200190815260200160002060009054906101000a900460ff1615610343576040517f08c379a000000000000000000000000000000000000000000000000000000000815260040161033a90610bd2565b60405180910390fd5b806002600084815260200190815260200160002060006101000a81548160ff02191690831515021790555060016003600084815260200190815260200160002060006101000a81548160ff0219169083151502179055506103a48282610718565b7f17124873aec4a4b1ba3660b40d20291d60e85c85f1f19c45b09715a01178133f82826040516103d5929190610bf2565b60405180910390a15050565b60003411610424576040517f08c379a000000000000000000000000000000000000000000000000000000000815260040161041b90610c67565b60405180910390fd5b6001600083815260200190815260200160002060405180606001604052803373ffffffffffffffffffffffffffffffffffffffff168152602001348152602001831515815250908060018154018082558091505060019003906000526020600020906003020160009091909190915060008201518160000160006101000a81548173ffffffffffffffffffffffffffffffffffffffff021916908373ffffffffffffffffffffffffffffffffffffffff1602179055506020820151816001015560408201518160020160006101000a81548160ff02191690831515021790555050507fb1bd10cf5ea9540f12b9b182707734fd82deacc56830e2bd316133deb372bff48233348460405161053b9493929190610c87565b60405180910390a15050565b61054f6105cd565b600073ffffffffffffffffffffffffffffffffffffffff168173ffffffffffffffffffffffffffffffffffffffff16036105c15760006040517f1e4fbdf70000000000000000000000000000000000000000000000000000000081526004016105b89190610a0f565b60405180910390fd5b6105ca81610654565b50565b6105d5610928565b73ffffffffffffffffffffffffffffffffffffffff166105f361023d565b73ffffffffffffffffffffffffffffffffffffffff161461065257610616610928565b6040517f118cdaa70000000000000000000000000000000000000000000000000000000081526004016106499190610a0f565b60405180910390fd5b565b60008060009054906101000a900473ffffffffffffffffffffffffffffffffffffffff169050816000806101000a81548173ffffffffffffffffffffffffffffffffffffffff021916908373ffffffffffffffffffffffffffffffffffffffff1602179055508173ffffffffffffffffffffffffffffffffffffffff168173ffffffffffffffffffffffffffffffffffffffff167f8be0079c531659141344cd1fd0a4f28419497f9722a3daafe3b4186f6b6457e060405160405180910390a35050565b600060016000848152602001908152602001600020905060008060005b83805490508110156107f55783818154811061075457610753610ccc565b5b906000526020600020906003020160010154836107719190610d2a565b925084151584828154811061078957610788610ccc565b5b906000526020600020906003020160020160009054906101000a900460ff161515036107e2578381815481106107c2576107c1610ccc565b5b906000526020600020906003020160010154826107df9190610d2a565b91505b80806107ed90610d5e565b915050610735565b5060005b83805490508110156109205784151584828154811061081b5761081a610ccc565b5b906000526020600020906003020160020160009054906101000a900460ff1615150361090d576000828486848154811061085857610857610ccc565b5b9060005260206000209060030201600101546108749190610da6565b61087e9190610e17565b905084828154811061089357610892610ccc565b5b906000526020600020906003020160000160009054906101000a900473ffffffffffffffffffffffffffffffffffffffff1673ffffffffffffffffffffffffffffffffffffffff166108fc829081150290604051600060405180830381858888f1935050505015801561090a573d6000803e3d6000fd5b50505b808061091890610d5e565b9150506107f9565b505050505050565b600033905090565b600080fd5b6000819050919050565b61094881610935565b811461095357600080fd5b50565b6000813590506109658161093f565b92915050565b60006020828403121561098157610980610930565b5b600061098f84828501610956565b91505092915050565b60008115159050919050565b6109ad81610998565b82525050565b60006020820190506109c860008301846109a4565b92915050565b600073ffffffffffffffffffffffffffffffffffffffff82169050919050565b60006109f9826109ce565b9050919050565b610a09816109ee565b82525050565b6000602082019050610a246000830184610a00565b92915050565b60008060408385031215610a4157610a40610930565b5b6000610a4f85828601610956565b9250506020610a6085828601610956565b9150509250929050565b610a7381610935565b82525050565b6000606082019050610a8e6000830186610a00565b610a9b6020830185610a6a565b610aa860408301846109a4565b949350505050565b610ab981610998565b8114610ac457600080fd5b50565b600081359050610ad681610ab0565b92915050565b60008060408385031215610af357610af2610930565b5b6000610b0185828601610956565b9250506020610b1285828601610ac7565b9150509250929050565b610b25816109ee565b8114610b3057600080fd5b50565b600081359050610b4281610b1c565b92915050565b600060208284031215610b5e57610b5d610930565b5b6000610b6c84828501610b33565b91505092915050565b600082825260208201905092915050565b7f4576656e7420616c7265616479207265736f6c76656400000000000000000000600082015250565b6000610bbc601683610b75565b9150610bc782610b86565b602082019050919050565b60006020820190508181036000830152610beb81610baf565b9050919050565b6000604082019050610c076000830185610a6a565b610c1460208301846109a4565b9392505050565b7f4d75737420706c61636520612062657400000000000000000000000000000000600082015250565b6000610c51601083610b75565b9150610c5c82610c1b565b602082019050919050565b60006020820190508181036000830152610c8081610c44565b9050919050565b6000608082019050610c9c6000830187610a6a565b610ca96020830186610a00565b610cb66040830185610a6a565b610cc360608301846109a4565b95945050505050565b7f4e487b7100000000000000000000000000000000000000000000000000000000600052603260045260246000fd5b7f4e487b7100000000000000000000000000000000000000000000000000000000600052601160045260246000fd5b6000610d3582610935565b9150610d4083610935565b9250828201905080821115610d5857610d57610cfb565b5b92915050565b6000610d6982610935565b91507fffffffffffffffffffffffffffffffffffffffffffffffffffffffffffffffff8203610d9b57610d9a610cfb565b5b600182019050919050565b6000610db182610935565b9150610dbc83610935565b9250828202610dca81610935565b91508282048414831517610de157610de0610cfb565b5b5092915050565b7f4e487b7100000000000000000000000000000000000000000000000000000000600052601260045260246000fd5b6000610e2282610935565b9150610e2d83610935565b925082610e3d57610e3c610de8565b5b82820490509291505056fea26469706673582212208e75bdcbabc3dd0f10756aed2a822ee19fca1ccea85112a765821df8cd12599964736f6c63430008140033",
  "linkReferences": {},
  "deployedLinkReferences": {}
}